:100000000C9446000C9463000C9463000C94630001
:100010000C9463000C9463000C9463000C946300D4
:100020000C9463000C9463000C9463000C946300C4
:100030000C9463000C9463000C9463000C946300B4
:100040000C9463000C9463000C9463000C946300A4
:100050000C9463000C9463000C9463000C94630094
:100060000C9463000C9463000C9463000C94630084
:100070000C9463000C9463000C9463000C94630074
:100080000C9463000C9463000C94630011241FBE55
:10009000CFEFD0E1DEBFCDBF11E0A0E0B1E0E2E103
:1000A000F1E002C005900D92A030B107D9F711E040
:1000B000A0E0B1E001C01D92A030B107E1F70E94BD
:1000C0006E000C9487000C940000E1E6F0E0808163
:1000D0008064808380818F74808308958091610023
:1000E000806480936100809161008F7480936100CF
:1000F0008FEF84BB809364008093650085BBBF98BD
:10010000C79AB79B02C085BBFCCF15BAFACFF8944B
:02011000FFCF1F
:00000001FF
